{
  "transactions": [
    {
      "hash": "0x488daf4fb8c2b70e8a93a581695255ec7e81d97996c2f46f4855c5c3d77156ef",
      "transactionType": "CALL",
      "contractName": "EntryPoint",
      "contractAddress": "0x5ff137d4b0fdcd49dca30c7cf57e578a026d2789",
      "function": "depositTo(address)",
      "arguments": [
        "0xd7a66Ece1719FBC6593181615bfb6d2F28664416"
      ],
      "transaction": {
        "from": "0xd5de8324d526a201672b30584e495c71bebb3e9a",
        "to": "0x5ff137d4b0fdcd49dca30c7cf57e578a026d2789",
        "gas": "0x9b98",
        "value": "0x16345785d8a0000",
        "input": "0xb760faf9000000000000000000000000d7a66ece1719fbc6593181615bfb6d2f28664416",
        "nonce": "0x17e",
        "chainId": "0xaa36a7"
      },
      "additionalContracts": [],
      "isFixedGasLimit": false
    }
  ],
  "receipts": [
    {
      "status": "0x1",
      "cumulativeGasUsed": "0x8dbfed",
      "logs": [
        {
          "address": "0x5ff137d4b0fdcd49dca30c7cf57e578a026d2789",
          "topics": [
            "0x2da466a7b24304f47e87fa2e1e5a81b9831ce54fec19055ce277ca2f39ba42c4",
            "0x000000000000000000000000d7a66ece1719fbc6593181615bfb6d2f28664416"
          ],
          "data": "0x0000000000000000000000000000000000000000000000000186cc6acd4b0000",
          "blockHash": "0x9108b0a7eaa33da9a4e22cbbacfd920a624dc61e2fde1dab597a1e4b0d684ed8",
          "blockNumber": "0x9495f6",
          "blockTimestamp": "0x692c1168",
          "transactionHash": "0x488daf4fb8c2b70e8a93a581695255ec7e81d97996c2f46f4855c5c3d77156ef",
          "transactionIndex": "0x48",
          "logIndex": "0xf5",
          "removed": false
        }
      ],
      "logsBloom": "0x00000000000000000000000000000000000000000000000000000000000000000000000000000000000200000000000000100000000000000000000000000000000000000000000000000000000000000000000000000000000000000000200000000000080000000000000000000000000000000000000000000000000200000000000000000000000000000000000000000000000000000000000010000000000000040000000000000000000000000000000000000000000000000000000000000000000000000000000000000000000000000000000000000000000000000040000000000000000000000000000000000000000000000000000000000000",
      "type": "0x2",
      "transactionHash": "0x488daf4fb8c2b70e8a93a581695255ec7e81d97996c2f46f4855c5c3d77156ef",
      "transactionIndex": "0x48",
      "blockHash": "0x9108b0a7eaa33da9a4e22cbbacfd920a624dc61e2fde1dab597a1e4b0d684ed8",
      "blockNumber": "0x9495f6",
      "gasUsed": "0x70a6",
      "effectiveGasPrice": "0xf4249",
      "from": "0xd5de8324d526a201672b30584e495c71bebb3e9a",
      "to": "0x5ff137d4b0fdcd49dca30c7cf57e578a026d2789",
      "contractAddress": null
    }
  ],
  "libraries": [],
  "pending": [],
  "returns": {},
  "timestamp": 1764495722244,
  "chain": 11155111,
  "commit": "386b023"
}