{
  "transactions": [
    {
      "hash": "0x76ea4ef512dd61cd28e5abd1e538486a3d843ccf277491124a8b784f7fcbe631",
      "transactionType": "CALL",
      "contractName": "EntryPoint",
      "contractAddress": "0x5ff137d4b0fdcd49dca30c7cf57e578a026d2789",
      "function": "depositTo(address)",
      "arguments": [
        "0xd7a66Ece1719FBC6593181615bfb6d2F28664416"
      ],
      "transaction": {
        "from": "0xd5de8324d526a201672b30584e495c71bebb3e9a",
        "to": "0x5ff137d4b0fdcd49dca30c7cf57e578a026d2789",
        "gas": "0x10670",
        "value": "0x2386f26fc10000",
        "input": "0xb760faf9000000000000000000000000d7a66ece1719fbc6593181615bfb6d2f28664416",
        "nonce": "0x17d",
        "chainId": "0xaa36a7"
      },
      "additionalContracts": [],
      "isFixedGasLimit": false
    }
  ],
  "receipts": [
    {
      "status": "0x1",
      "cumulativeGasUsed": "0x7033c9",
      "logs": [
        {
          "address": "0x5ff137d4b0fdcd49dca30c7cf57e578a026d2789",
          "topics": [
            "0x2da466a7b24304f47e87fa2e1e5a81b9831ce54fec19055ce277ca2f39ba42c4",
            "0x000000000000000000000000d7a66ece1719fbc6593181615bfb6d2f28664416"
          ],
          "data": "0x000000000000000000000000000000000000000000000000002386f26fc10000",
          "blockHash": "0x1b8a751e05ea6a6c79e71d4571f15bf591d0e4a688245aed41c31c1d8b76dbf3",
          "blockNumber": "0x9495db",
          "blockTimestamp": "0x692c1024",
          "transactionHash": "0x76ea4ef512dd61cd28e5abd1e538486a3d843ccf277491124a8b784f7fcbe631",
          "transactionIndex": "0x41",
          "logIndex": "0xb3",
          "removed": false
        }
      ],
      "logsBloom": "0x00000000000000000000000000000000000000000000000000000000000000000000000000000000000200000000000000100000000000000000000000000000000000000000000000000000000000000000000000000000000000000000200000000000080000000000000000000000000000000000000000000000000200000000000000000000000000000000000000000000000000000000000010000000000000040000000000000000000000000000000000000000000000000000000000000000000000000000000000000000000000000000000000000000000000000040000000000000000000000000000000000000000000000000000000000000",
      "type": "0x2",
      "transactionHash": "0x76ea4ef512dd61cd28e5abd1e538486a3d843ccf277491124a8b784f7fcbe631",
      "transactionIndex": "0x41",
      "blockHash": "0x1b8a751e05ea6a6c79e71d4571f15bf591d0e4a688245aed41c31c1d8b76dbf3",
      "blockNumber": "0x9495db",
      "gasUsed": "0xb372",
      "effectiveGasPrice": "0xf4249",
      "from": "0xd5de8324d526a201672b30584e495c71bebb3e9a",
      "to": "0x5ff137d4b0fdcd49dca30c7cf57e578a026d2789",
      "contractAddress": null
    }
  ],
  "libraries": [],
  "pending": [],
  "returns": {},
  "timestamp": 1764495398118,
  "chain": 11155111,
  "commit": "386b023"
}